:200000003807FF1F652F0000952F0000992F00009D2F0000A12F0000A52F0000AA55AA55F5
:20002000000000000000000000000000A92F0000AD2F000000000000BF21000047220000C3
:20004000B92F0000BD2F0000C12F0000C52F0000C92F0000CD2F0000D12F0000E52B0000E4
:20006000F72B0000092C00001B2C00002D2C00003F2C0000512C0000632C0000752C000071
:20008000872C0000992C0000AB2C0000BD2C0000CF2C0000E12C0000F32C000015300000BC
:2000A000193000001D3000002130000025300000293000002D30000031300000092E0000B6
:2000C00039300000713000003D300000413000004530000049300000E118000087190000B1
:2000E0002D1A0000D31A0000791B00001F1C0000C51C00006B1D00006D3000007130000056
:200100002DE9F04FA1B0824602AE002017461D46029170620DF144080AE017F8011B029883
:20012000D0470290002800F08B82706A401C7062387808B9706A85E22528EED10020F060BB
:2001400030617061B061F061306201E040F0010017F8011F2029F9D023290DD02B2904D0A5
:200160002D2906D030290AD00CE040F0020080B2EEE740F00400FAE740F00800F7E740F0A0
:200180001000F4E72A290DD129680A1D2A600968F162002904D5494240F00400F16280B2F7
:2001A0007F1C13E00021F1620BE0F16A6FF00043994205D001EB810302EB43013039F16248
:2001C0007F1C3A78A2F130010A29EED339782E2903D04FF0FF31B1621EE017F8011F2A293D
:2001E00006D129680A1D2A607F1C0968B16213E00021B1620BE0B16A6FF00043994205D048
:2002000001EB810302EB43013039B1627F1C3A78A2F130010A29EED330860FF6C030397860
:2002200000F000FE08B117F8010B8DF83A009DF83A00682802BF39786829622005D06C28F0
:2002400004BF38786C2803D171208DF83A007F1C11A8B0603978B1F1250023D01C3871D00F
:20026000001F02286ED9133800F09780093869D0801E00F02B81401E00F0D480401E0228BE
:2002800060D9001F00F0CE80401F30D0401E00F08480401E20D0C01E09D0801E7DD0C01E49
:2002A0007BD01BE1F068411CF160252120E12868011D29600068B26A7060002A02D500F02E
:2002C000CDFD07E0002100F0E9FD00281ABF7168401AB06A30610DE12868011D2960002151
:2002E0000068CDE9000111A870607821EAE09DF83A00622818D0682806D06A280BD06C284B
:2003000019D0712807D016E02868011D29600068716A0180EEE02A68101D28601268706A2A
:20032000C117C2E90001E5E02868011D29600068716A0170DEE02868011D29600068716A51
:200340000160D7E02868C01D20F00700286000F108022A60D0E90023CDE90023002B04D53B
:20036000F068421CF2602D220DE0308E820704D5F068421CF2602B2205E0C00705D5F068E6
:20038000421CF260202200F80820F06811AA8018706000A800F0E2F9ACE09DF83A006C286E
:2003A00008BF2A6811D0712808BF2A6802D02A686A280AD1D21D22F007022A60144604F15D
:2003C00008022A60D4E9002303E0131D2B6000231268CDE90023682808BF92B207D0622899
:2003E00008BFD2B203D0742818BF7A2802D10023CDE9002396F8300000075FD5DDE9002319
:20040000002B08BF002A59D041F02000782855D1F068302200F80820401C421CF26000F8B2
:2004200008104BE09DF83A0062280CD0682810D06A281AD06C2823D0712816D074281FD0C7
:200440007A280CD01CE02868021D2A6090F900201AE02868021D2A60B0F9002014E02868C0
:20046000021D2A60002302680FE02868C01D20F00700286000F108022A60D0E9002304E006
:200480002868021D2A600268D317CDE90023002B04DAF068421CF2602D220DE0308E820762
:2004A00004D5F068421CF2602B2205E0C00705D5F068421CF260202200F80820F06811AA0B
:2004C0008018706000A800F0C0F813E0F068411CF16029680A1D2A60096809E0F068421C19
:2004E000F260252200F8082021B1F068421CF26000F80810F06AF168401AB169401A31693E
:20050000401AF169401A7169401A316AA0EB010996F830007F1C400710D420208DF84000E0
:20052000002409E0012310AA00A9504600F03EFC002840F08580641C4C45F3DBF4680DF1D1
:20054000440B0AE01BF8011B0298D0470290002876D0706A401C7062641E002CF2D13020B9
:200560008DF840004FF0000BB46909E0012310AA00A9504600F01AFC002861D10BF1010BE1
:20058000A345F3DB3469D6F804B00AE01BF8011B0298D0470290002852D0706A401C7062D8
:2005A000641E002CF2D130208DF840004FF0000BF46909E0012310AA00A9504600F0F6FB27
:2005C00000283DD10BF1010BA345F3DB30697168746900EB010B09E01BF8011B0298D04718
:2005E000029068B3706A401C7062641E002CF3D130208DF840004FF0000B346A08E00123CB
:2006000010AA00A9504600F0D1FBC8B90BF1010BA345F4DB96F8300040077FF589AD2020F6
:200620008DF84000002400E0641C4C45BFF680AD012310AA00A9504600F0B8FB0028F3D053
:200640004FF0FF3021B0BDE8F08F2DE9FA47064682B035690A466F2A08BF082705D041F0DF
:200660002000782814BF0A271027D6E900013C2480468946642A18BF692A05D1002903DAF6
:20068000D8F1000869EB4909B9F1000F08BFB8F1000F0CD1306B50B9082F3BD196F8380021
:2006A000000737D530203B2485F83B0032E0CDE90089FB17404649463A4600F01BFCB846C3
:2006C000A8FB0023DDE90089A8EB02023032A4F1010AD2B254463A2A03DB9DF80830513BB3
:2006E0009A180AF8052080465FEA010908BFB8F1000F03D0F06861198842D8D3082F09D15E
:2007000096F83800000705D5605D302802D0641E30206055C4F13C00B0616119F160316B5B
:20072000884207DA081A30624FF6EF71308F0840308710E000290ED596F8381001F014011F
:20074000102908D1716B7269891A326A891A081A0128A8BF306204B0BDE8F0872DE9F24F83
:2007600004468EB0D4E90001CDE9020104AE9DF8380040F02000009061280AD0206B002805
:2007800048BF062004D404BF0098672801D1012020636168C1F30A5040F2FF7290421CD1BB
:2007A000080304BF2068002809D10320A0619DF8380061381A2836D30FF2346108E003206B
:2007C000A0619DF8380061381A2829D30FF21861E068032200F006FCB5E1012816DA204686
:2007E00000F03BFC012811DB002700200099612920D1E168302201F8012B4A1CE2609DF865
:200800003820612A0CBF782258220FE0626840F2FE3161F31E52471A62604FF0FF30E5E7DB
:200820000FF2C051D4E70FF2C451D1E70A706169891C616110B9002500277BE100986128E0
:2008400040F09680206B00284CBF2125451CDDE902012DB26E1CD4E900890022002300F040
:200860001DFC3ABF89F00040CDE90280CDE902893F1F8DF810200DF1110801E000F2070828
:20088000012E32DBDDE902010022002300F01EFC2BD21C2102A800F031FCDDE9020100F04A
:2008A000B3FCF61F8146012E09DB00F0D9FC02460B46DDE9020100F0EBFCCDE9020108F2E9
:2008C0000700072105E009F00F0200F8012D4FEA2919B9F1010F01DB491EF4D5491E5CBF11
:2008E000002200F8012DF9D5C8E70DF11100A8EB00010DF11106A942B8BF0D462DB22800BF
:200900002FD4884206DA04A9411849780829A8BF0F2100DA002104AA821800E06D1E12F8E3
:200920000139401E8B42F9D00F2904D104A941184A78521C4A70002802D504AE6D1C3F1DF6
:200940002DB2681E0DD481190A783032D2B23A2A03DB9DF838303A3B9A1801F80129401E68
:20096000F2D5206B002840F1E580681E2063E1E0DDE902010022002300F090FB3CBF81F0A8
:200980000041CDE902013FB247F2975078434849DFF820B190FBF1F73FB2C7F10706924657
:2009A000012E19DBDDE90289F00707D552465B464046494600F02CFD8046894676105046D8
:2009C000594652465B4600F023FD82468B46002EEAD1CDE9028921E076429046DFF8D8909E
:2009E00012E0F00707D552465B464046494600F00FFD8046894676105046594652465B465F
:200A000000F006FD82468B46002EEAD1DDE9020142464B4600F0CEFDCDE9020100986628E5
:200A20000CBF07F10A000620216B4518142DA8BF132530208DF810000DF11106DFF87C901D
:200A4000012D3DDBDDE9020100F0F4FB06F1080104220A23B0FBF3F303EB8306A0EB46007C
:200A6000303001F8010D0A20B3FBF0F000EB8006A3EB4603303301F8013D521EE9D1083D06
:200A800001F10806012DDBDBDDE9020100F0D2FB00F0F0FB02460B46DDE9020100F0F8FBCC
:200AA00000224B4600F0B4FCCDE90201CAE700BFA0860100000024400000F03F84D79741CD
:200AC0000DF11100301A0DF1110602E0401E7F1E761C31783029F9D00099662902D13FB282
:200AE000791C03E065290CBF01210021226B8D182DB2A842B8BF05462DB229001AD481426C
:200B000004DA885D3528A8BF392000DA30208A19521E00E06D1E12F80139491E8342F9D014
:200B2000392802D1885D401C8855002902D5761E6D1C7F1C3FB29DF8381000972BB23246F1
:200B4000204600F003F80FB0BDE8F08F2DE9F043054685B01E46D5F8308089461746012E5C
:200B600002DA01260FF28C2749F02000BDF93040662808BF641C17D0672840F0818014F1BE
:200B8000040FC0F28380444580F2808095F83800641C000702D44645B8BFB04624B2B8EBFF
:200BA000040848BF4FF00008E868A96924B2012C25DA30234A1C0B54B8F1010F03DA95F83C
:200BC0003810090702D52E211154521CAA6118EB040FB8BFC8F1000424B26142A044696247
:200BE000B045B8BF464636B2EE613246AB693946181800F0F7F9A8EB0600A862BFE0081849
:200C0000A64218DA3246394600F0ECF9A9697118A961A01B6862B8F1010F03DA95F83800A9
:200C2000000705D5E8682E220A54E869401CE861C5F82880A3E02246394600F0D3F9A86943
:200C40002018361BB8F1010F03DA95F83810090703D5E9682E224254401C36B2A861B0453F
:200C6000B8BF4646EB6836B23246E119C01800F0B9F9A8693018A861A8EB060068627EE027
:200C80004846612816D14FF0700917E0464504DA95F83810090758BFB046B8F1010848BF93
:200CA0004FF00008B9F1670F14BF4FF045094FF0650903E0412808BF4FF05009A969E868B3
:200CC00017F8013B0B544A1CB8F1010F05DA95F83810090758BFAA6117D52E211154531C56
:200CE000AB61B8F1010F10DB761E36B2B045B8BF464636B232463946181800F073F9A86954
:200D00003018A861A8EB06006862A869E9684718200007F8019B03D42B2007F8010B03E093
:200D20002D2107F8011B444200260DF1080808E00A2200A800F061FD019808F8010B761C4F
:200D4000009C21B20129F3DA022E06DA49F02000652804BF302007F8010B4EB9302007F8C3
:200D6000010B07E0761E02A8305C303007F8010B012EF7DAA869E9684018381AE86195F869
:200D8000380000F0140010280DD16869A9690818696A0818E9690818A96A0818696B8842C8
:200DA000BCBF081A286205B0BDE8F083F8B504460D4616461F46002004E0E86A401CE86238
:200DC0007F1E002047B116F8011BA868A047A8600028F2D14FF0FF30F2BD0000686A6C747B
:200DE0007A4C00006E616E004E414E00696E6600494E4600300010B450F8041B81B1026802
:200E00001218001D50F8043BDC0744BFA9F10104E31852F8044B43F8044B091FF9D1EBE79D
:200E200010BC70470278C9B28A421AB11CBF10F8012FF9E718BF0020704750F8041B61B189
:200E400050F8042BD30744BFA9F101039A18002342F8043B091FFAD1EFE7704700F10103DD
:200E6000810704D010F8011B89B18107FAD10268B2F10131914311F0803F04BF50F8042F54
:200E8000F6E710F8011B11B110F8011BFBE7C01A70470268531C036011707047C9B283077F
:200EA00006D0521E22D310F8013B9942F7D11FE0083A13D302F1040241EA012141EA014136
:200EC00050F8043B121F21BF4B40A3F1013C2CEA030C1CF0803FF3D0C9B2001F083210F88F
:200EE000013B521E28BF91EA030FF8D818BF0120401E70471B4213D1094236D12AB18446BD
:200F0000B0FBF2F002FB10C2704700F07DBCFCD30022002370470B000200002100207047C5
:200F2000904271EB030CF6D370B5B1FA81F4B3FA83F52C1BA340C4F1200532FA05F63343A0
:200F4000A2405FF00046E64002E05B085FEA3202841A71EB030524BF204629467641F4D3FA
:200F600002000B003000002170BD012ACFD970B5140C20D0B1FA81F4B2FA82F5C4F12004C2
:200F80006419B4F12006D6D3B2405FF00044F440002502E052085FEA3303C61A71EB020E7B
:200FA00024BF3046714664416D41F3D302000B002000290070BD0C46B1FBF2F102FB114551
:200FC0002D0445EA1045B5FBF2F402FB145580B240EA0545B5FBF2F002FB105240EA04405B
:200FE00070BD000062B38B0708D0521E11F8013B00F8013B00F024808B07F6D1830740F0B5
:20100000208000BF103A07D330B4B1E83810103AA0E83810F9D230BC530724BFB1E80810C9
:20102000A0E8081044BF51F8043B40F8043BD20724BF31F8022B20F8022B44BF0B780370BE
:201040007047083A07D3B1E80810083A40F8043B40F804CBF7D25307E4E730B4436803F0DC
:20106000004201211B031B0B436004BF0368002B08D10DE00368DD0F45EA440444605B0039
:201080000360491E4468E302F4D523031B0B436043681A434260084630BC70474FF4001C43
:2010A0001CEB410F94BF1CEB430F09E041EA030C50EA4C0C52EA0C0C03D2994208BF9042DB
:2010C000704714BF8B428242704700004FF4001C1CEB410F94BF1CEB430F09E041EA030CB9
:2010E00050EA4C0C52EA0C0C03D28B4208BF8242704714BF994290427047000070B5044680
:201100000D466068C0F30A5040F2FF71884207D16068000304BF2068002817D0022070BDEF
:2011200020B92046FFF799FF012867DA012D0FDB40F2FF71091A8D420AD36068002847BFF9
:2011400000202F4900202F49C4E90001012070BD4142A942616806DA6FF31E51401941EAF7
:201160000050606041E0401E63680122451962F31F5305F1350001F000416360352803D37A
:2011800061600020206070BD002215F11F0F04DA22682360002020356060684213D0521E4E
:2011A00025689241C0F12003D2439D4045EAD27225686668C54006FA03F32B432360636884
:2011C00023FA00F06060606808436060B2F1004F03D80DD12078C0070AD52068401C206022
:2011E000206828B96068401C60604FF0FF3070BD6068884204BF20680028F6D1002070BDEE
:201200000000F0FF0000F07FF446400D40EAC120490006D200F014F8004248BF6FF00040D9
:20122000604700F00DF84FF0004188428CBF084640426047400D40EAC120490080F00D8068
:2012400040F00040490DA1F58061491C05D4D1F11F0154BFC840C01770474FF00000704792
:20126000010040F10980F446404200F005F851F000416047010000BF09D0B0FA80F1884065
:20128000C91CC1F58461090501EBD0214005704770B44FF0004591EA030F44BF6B4000F014
:2012A000B5BA00BF841A71EB030604D26E40001BB141121973414FF4001C1CEB410F34BFE4
:2012C0007CEB430684E00C0DA4EB1356362E7DDC012E43DC45EAC32343EA525312BFD20252
:2012E00092025B08240545EAC12141EA5051D2EBC020994125D407D1B0FA80F610FA06F188
:2013000064D00020203608E0B1FA81F6B140C6F1200220FA02F21143B0404FEAF474B4EBBD
:20132000465434F001064FEA74040AD8D6F50016760D04F00044F04061FA06F25040F14075
:201340004840C00A40EA415021F0004128BF5FEA500550F1000044EBD12137E045EAC3231B
:20136000DB0A45EAC121C90AB6F120050EDD42EA0242120CC5F1200603FA06F6EB4042EA33
:2013800006056D42984161F100010DE062FA06F5F240554063FA06FC82EA0C02F3405A40B6
:2013A0006D42904161EB030111F4801F05D1641E620502D06D004041494121F480114308BF
:2013C00075F1004350F1000041EB045170BC70471CEB410F15D223F0004352EA43060BD0CB
:2013E0004FEA4C0CBCEB410F04D80C0D661E342EB7DDEBE7801A994150EA410608BF002147
:20140000E4E708BF1CEB430F28BF6FF00001DDE7B0B581EA030C0CF0004C40F2FF7515EA0A
:2014200011541DBF15EA1357AC42AF4239E0E41923EA455343F48013C90241F0004141EA36
:20144000505EC7021100A7FB020200284FF00000EEFB01204FF00001E3FB072118BF42F09E
:201460000102401800214941E3FB0E01A4F580640F0302D252004041494154F101046CDD26
:20148000470872F1004250F1000051EB0451A1F580115CBF41EA0C01B0BD4CEA05510020F3
:2014A000B0BD05EA1357AC4214BFAF4241E050EA410E1CBF52EA430E02E061460020B0BD8C
:2014C00024423C441BD15FEA070EF6D0090302BF01460020AEF1140EB1FA81F7AEEB07045A
:2014E00001FA07FE0C37C7F1200100FA07F7C8404EEA000E23EA455343F48013A2E733F06F
:201500000043B3FA83F704BFB2FA82FE77440B3FE41BB7F1200E2FBF02FA0EF3BB40C7F1FA
:20152000200E22FA0EFE38BF43EA0E03BA40641C82E750EA410E14BF52EA430E6FF00001F4
:201540004FF4001717EB430F8ABF194617EB410FB5E74CEA05510020B0BDD4F10104B4F1BF
:2015600020070FDAC4F12007520828BF42F0010210FA07F501FA07F7E1BF2A43E040384362
:20158000E1400FE0352C98DCC7F1200452EA400220FA07F218BF42F0010231FA07F0A140EA
:2015A0000A43002172F1004250F1000051EB0C01B0BD0000F0B540F2FF7581EA030C0CF060
:2015C000004C15EA11541DBF15EA1357AC42AF42E5E0BC41C1F31301C3F31303801A99416D
:2015E00043F4801304D2641E4000494180185941C90241EA5051B1FBF3F603FB1611A2FBDF
:201600000675D7EBC020A94102D2761E80185941C90241EA5051B1FBF3FE03FB1E11A2FB2B
:201620000E75D7EBC020A94103D2AEF1010E80185941890241EA9051760546EA8E2EB1FB3C
:20164000F3F603FB1611A2FB0675D7EB8020A94102D2761E80185941C90241EA50514EEAAF
:20166000060EB1FBF3F603FB1611A2FB0675D7EBC020A94102D2761E80185941C90241EA68
:201680005051B1FBF3F703FB1711A2FB0735D3EBC020A94167F100070CBF004247F00107E1
:2016A00066F3D5274FEA1E31B80814F5806412DDBD0775F1004250EB0E5051EB045111F515
:2016C000801F5CBF41EA0C01F0BD4CF07F6141F0E0410020F0BDBD076D0840EA0E5041F43A
:2016E0008011D4F10104B4F120060ADAC4F120060200E04001FA06F3E1401843B240154329
:201700000EE0342C13DCC6F1200445EA40056D0820FA06F2154321FA06F0A1400D430021FB
:2017200075F1004250F1000051EB0C01F0BD00205FEA0C01F0BDCFB992185B41B3FA83F7B2
:2017400004BFB2FA82F6BF190B3FB7F120062FBF02FA06F3BB40C7F1200622FA06F638BFE7
:201760003343BA401CB1E419641E33E77F4231F00041B1FA81F404BFB0FA80F6A4190B3C69
:20178000B4F120062FBF00FA06F1A140C4F1200620FA06F638BF3143A0403C1B1AE7AC423C
:2017A0001ABF05EA1357AF4212E050EA41061CBF52EA4306BFE750EA4107304661461CBF13
:2017C00041EA0551F0BD52EA430C08BFC143F0BD00204FF4001616EB410F98BF16EB430F64
:2017E00008BF16EB410F24BFC14305E016EB430F0CBF61464CEA0551F0BD91FBF2F303FB98
:201800001211C0E90031704770470000841A71EB030603D2001BB141121973414FF4001C3A
:201820001CEB410F34BF7CEB430443E00C0DA4EB1356352E50DC45EAC323DB0A45EAC121E2
:20184000C912B6F120050DDD63FA05F6EB4086EA0305124218BF45F00105C01851F100017B
:201860000CD213E062FA06F5F2405540F3415A40B340F3405A408018594107D349085FEA45
:2018800030005FEA350528BF45F0010501F58011420875F1004250F1000041EB045170BC0C
:2018A0004FF4001C1CEB410F38BF70470020090D090570471CEB410F10D252EA43060BD030
:2018C000BCEB410F05D80C0DAB43661E342EB5DD02E0AB438018594170BC704770BC7047ED
:2018E00080B5DFF83015096811F4E021B1F5803F01D1012030E0DFF81C15096811F4E02139
:20190000B1F5003F01D1022026E0DFF80815096811F4E021B1F5403F01D103201CE0DFF890
:20192000F414096811F4E021B1F5802F01D1042012E0DFF8E014096811F4E021B1F5A02F34
:2019400001D1052008E0DFF8CC14096811F4E021B1F5E02F00D10620DFF8F4140968002955
:2019600004D0C0B2DFF8E81409688847DFF8A404006830F4E020DFF89C140860DFF89004A9
:201980000021017001BD80B5DFF89014096811F4E021B1F5803F01D1012030E0DFF87C1401
:2019A000096811F4E021B1F5003F01D1022026E0DFF86814096811F4E021B1F5403F01D110
:2019C00003201CE0DFF85414096811F4E021B1F5802F01D1042012E0DFF84014096811F454
:2019E000E021B1F5A02F01D1052008E0DFF82C14096811F4E021B1F5E02F00D10620DFF881
:201A000050144968002904D0C0B2DFF8441449688847DFF80804006830F4E020DFF8FC133E
:201A20000860DFF8F4030021017001BD80B5DFF8F413096811F4E021B1F5803F01D101203E
:201A400030E0DFF8E013096811F4E021B1F5003F01D1022026E0DFF8CC13096811F4E02129
:201A6000B1F5403F01D103201CE0DFF8B813096811F4E021B1F5802F01D1042012E0DFF823
:201A8000A413096811F4E021B1F5A02F01D1052008E0DFF89013096811F4E021B1F5E02F1E
:201AA00000D10620DFF8A8138968002904D0C0B2DFF89C1389688847DFF86803006830F429
:201AC000E020DFF860130860DFF854030021017001BD80B5DFF85413096811F4E021B1F546
:201AE000803F01D1012030E0DFF84013096811F4E021B1F5003F01D1022026E0DFF82C138E
:201B0000096811F4E021B1F5403F01D103201CE0DFF81813096811F4E021B1F5802F01D198
:201B2000042012E0DFF80413096811F4E021B1F5A02F01D1052008E0DFF8F012096811F487
:201B4000E021B1F5E02F00D10620DFF80413C968002904D0C0B2DFF8F812C9688847DFF892
:201B6000CC02006830F4E020DFF8C0120860DFF8B8020021017001BD80B5DFF8B8120968D2
:201B800011F4E021B1F5803F01D1012030E0DFF8A412096811F4E021B1F5003F01D10220FA
:201BA00026E0DFF89012096811F4E021B1F5403F01D103201CE0DFF87C12096811F4E0213D
:201BC000B1F5802F01D1042012E0DFF86812096811F4E021B1F5A02F01D1052008E0DFF8D5
:201BE0005412096811F4E021B1F5E02F00D10620DFF85C120969002904D0C0B2DFF85012FD
:201C000009698847DFF82C02006830F4E020DFF824120860DFF818020021017001BD80B507
:201C2000DFF81812096811F4E021B1F5803F01D1012030E0DFF80412096811F4E021B1F5BA
:201C4000003F01D1022026E0DFF8F011096811F4E021B1F5403F01D103201CE0DFF8DC1122
:201C6000096811F4E021B1F5802F01D1042012E0DFF8C811096811F4E021B1F5A02F01D142
:201C8000052008E0DFF8B411096811F4E021B1F5E02F00D10620DFF8B8114969002904D029
:201CA000C0B2DFF8AC1149698847DFF89001006830F4E020DFF884110860DFF87C01002160
:201CC000017001BD80B5DFF87C11096811F4E021B1F5803F01D1012030E0DFF8681109689C
:201CE00011F4E021B1F5003F01D1022026E0DFF85411096811F4E021B1F5403F01D1032032
:201D00001CE0DFF84011096811F4E021B1F5802F01D1042012E0DFF82C11096811F4E02160
:201D2000B1F5A02F01D1052008E0DFF81811096811F4E021B1F5E02F00D10620DFF8101134
:201D40008969002904D0C0B2DFF8041189698847DFF8F000006830F4E020DFF8E8100860EB
:201D6000DFF8DC000021017001BD80B5DFF8DC10096811F4E021B1F5803F01D1012030E089
:201D8000DFF8C810096811F4E021B1F5003F01D1022026E0DFF8B410096811F4E021B1F586
:201DA000403F01D103201CE0DFF8A010096811F4E021B1F5802F01D1042012E0DFF88C1005
:201DC000096811F4E021B1F5A02F01D1052008E0DFF87810096811F4E021B1F5E02F00D1DC
:201DE0000620DFF86C10C969002904D0C0B2DFF86010C9698847DFF85400006830F4E020CA
:201E0000DFF84810086010480021017001BD00002203FF1F140006402303FF1F2400064038
:201E20002403FF1F340006402503FF1F440006402603FF1F540006402703FF1F6400064040
:201E40002803FF1F740006402903FF1F84000640DC02FF1F10B50024DFF8F8020078012814
:201E600041D100F08FF90400DFF8E0020078002806D0DFF8D8020078401EDFF8D0120870ED
:201E8000DFF8C802007800282AD1DFF8C4020078002825D100F049F9DFF8BC020078DFF8BD
:201EA000BC12097888421BD0DFF8AC020078DFF8B01251F82000DFF8AC120860DFF8A402A5
:201EC0000068806B401CDFF89C1209688863DFF898020068401CDFF89012086000F06BF908
:201EE000200000F053F910BD38B5002400F09BF900F048F90400DFF874020068401CDFF807
:201F00006C120860200000F041F9DFF84802007801285ED1DFF858020078002803D00228D2
:201F200005D002D309E001200CE000200AE00120DFF83C1201220A7004E00120DFF83012F6
:201F400000220A70C0B2002843D0DFF82802056820E0002085F8310095F83000000715D44F
:201F6000DFF81402007895F836100843DFF80812087095F83400DFF80412405C95F8351059
:201F8000084395F83410DFF8F42188546D69200000F0FCF895F8320020281AD000F0F2F8B8
:201FA0000400E88D0028F1D0E88D401EE88580B20028EBD195F8300037210842C9D095F8E4
:201FC000300010F0C80085F83000012085F83100C2E731BDF8B50400A07ADFF8A451405DC2
:201FE000C0B20519ED7ADFF89861AD5DC0B2EDB215EBC005EDB2DFF8686156F82560002701
:20200000F785716296F83010914386F8301086F8313096F83010090713D4DFF85C110978A8
:2020200096F836201143DFF850211170C0B2DFF84C11415C96F835201143C0B2DFF83C217F
:2020400081542100300000F00BF8306A002804D0316A300000F01DF8F4612800C0B2F2BD63
:2020600010B490F83420D2B25318DB7A90F83540A343D2B25418E372D2B25218D27A002AF0
:2020800005D18A7A90F8360032EA0000887210BC704770B490F8342090F8363090F8354024
:2020A000086810E0D2B21518ED7AA543D2B21618F572D2B21518ED7A002D02D1857A9D43B0
:2020C0008572091D08680028ECD170BC704710B5002400F057F804001C480078002820D18A
:2020E0001B48007800281CD100F01FF81A4800781A490978884214D017480078184951F8FC
:2021000020001849086017480068806B401C15490968886314480068401C1349086000F03A
:2021200046F8200000F032F810BD134800781449405CC0B20100C9B2104A895C104A895C22
:2021400011EBC00004490870704700002A03FF1F2B03FF1F2F03FF1F2D03FF1F2C03FF1FC5
:20216000B801FF1F0C03FF1F0403FF1F1403FF1F3003FF1F1003FF1F2E03FF1FFC02FF1F14
:20218000082D0000EFF3108072B6704780F3108870471B48FF210170002080F3098819487E
:2021A0000121017018481949016062B6FEE71648164901607047144814490160704772B69E
:2021C000EFF3098028B1203880E8F00F10490968086000B50F4880475DF804EB0E480F4905
:2021E0000A7802700A480E490A680260106890E8F00F203080F309884EF0040E62B670470C
:2022000022ED00E02F03FF1F04ED00E0000000100803FF1F252200002C03FF1F2D03FF1F93
:202220000C03FF1F704780B50E480088401C0D4908800C480088142804DB0A480021018082
:2022400000F014F801BD80B5FFF79CFF06490978491C054A1170FFF799FFFFF745FEFFF73C
:20226000F9FD01BD2003FF1F2A03FF1F80B50348006800F005F8C0B202BD00001803FF1FDF
:2022800038B504000025002C01D1042029E02078032801D0012024E0FFF774FF0500A07ABC
:2022A00000280DD00023012200212000FFF792FE04002800FFF76AFFFFF709FF002010E073
:2022C00020894FF6FF71884207D02089401C20812800FFF75BFF002003E02800FFF756FF6B
:2022E000322032BD40B2002808D540B210F00F00AD4A8018090100F8041C03E040B2AB4A2A
:2023000009018154704780B5B0F1807F01D3012010E00002000A401EA54908600F215FF02E
:20232000FF30FFF7DFFFA34800210160A24807210160002002BDA1480021016070472DE9A3
:20234000F04FADF5057D00240025002600275FF0000800208DF810005FF0000A5FF00009C7
:202360005FF0000B96480068C821B0FBF1F0FFF7CAFFFFF7E0FF1022002100A800F035F99B
:202380000020804607E000A818F54021097808F8001018F10108B8F1100FF4D39DF8000093
:2023A000042829D102240298B0F5C02F11D25FF0000806E018F580200078C0B2C71918F103
:2023C000010802988045F5D30398874202D0012400E00124E4B2012C40F0DB8000208DF87A
:2023E0000000012000F04BF9102300AA00215FF4402000F071F9CCE09DF80000012840F0E3
:20240000C7800298B0F5C02F80F0C080002000F036F90DE05FF064095FF0000B5FFA8BFB76
:202420005B465FFA89F94A46664905A800F086F90298864221D24FF40072FF2105A800F0FE
:20244000D4F80298801BB0F5007F02D34FF4007501E00298851B5FF0000808E018EB060067
:202460005949085C05A908F8010018F10108ADB2A845F3D3ADB2002D11D10398874256D08B
:2024800000208DF80000012000F0F9F8102300AA00215FF4402000F01FF9012479E05FF00F
:2024A000000805E005A818F80000C71918F10108ADB2A845F6D32B009BB205AA31005FF4C0
:2024C000802000F009F9ADB2AE194FF40072002105A800F08AF8300000F04AF9824602988A
:2024E00000F046F90100504600F052F982463748514600F0CBF900F035FA80466420B8FB2D
:20250000F0F96420B8FBF0F100FB118B5FFA89F9B9F1640FBFF67EAF5FFA8BFB5B465FFA70
:2025200089F94A462A4905A800F008F980E700275FF0000806E018F580200078C0B2C71936
:2025400018F1010802988045F5D3039887420ED000208DF80000012000F091F8102300AAE4
:2025600000215FF4402000F0B7F8012411E002208DF80000012000F082F8102300AA0021A2
:202580005FF4402000F0A8F8022402E0012400E0012472B62000C0B200F05BF80DF5057D45
:2025A000BDE8F08F0000000018ED00E000E400E014E000E018E000E010E000E0003503405A
:2025C000B401FF1F8C2F00001000080000401C46742F000080B5002000F0D7F900F0DAF938
:2025E0000020FFF7ACFE002002BD10B5040010000A000100200000F0C1FA200010BD0000A0
:20260000DFF800F00100FF1FDFF800F0EB00FF1F01B582B0012000F0B7F902984FF47A7193
:20262000484302900298411E0291002808D01420009000980028F5D00098401E0090F8E743
:20264000012000F0A1F907BDD0F800D0D0F804F0704780B5C0B2022808D01B484FF4004170
:2026600001604FF40040FFF7EFFF07E016485FF4802101605FF48020FFF7E6FF01BD80B537
:2026800072B6C0B200280FD15FF48020FFF7B8FF5FF00410FFF7B4FF5FF4C020FFF7B0FF14
:2026A0000A48FFF7ADFF0DE05FF44020FFF7A8FF0748FFF7A5FF5FF46020FFF7A1FF05484A
:2026C000FFF79EFF62B601BD08ED00E00400060004000C0004000E002DE9F84304000D002E
:2026E00016001F005FF000080A20FFF791FF72B65FF0000914E01FFA89F959F806801FFA9F
:2027000089F919EB0500B0F5C02F07D2414628191FFA89F919EB0000FFF776FF19F10409D8
:202720001FFA89F9BFB2B945E5D30A20FFF770FF62B60A20FFF76CFFBDE8F1830CB41CB5FB
:20274000044604A801900A46009401AB00A9074878441830FDF7D4FC009900220A70002845
:202760005CBF0098001B16BC5DF80CFB27E7FFFF002800BF0AD0B0FA80F18840D1F19D014D
:20278000C905020672F1004241EB10207047000010B5FF2313EAD0541DBF13EAD1529C42C9
:2027A0009A4239E0A41ADA0780EA0103134042EA012142EA0020421A3CBF641E01EB420221
:2027C000090AB2FBF1FE01FB1E221202B2FBF1F001FB10226EF30F201202B2FBF1FE4EEAC6
:2027E00000207F3406DDFE2C24DA53EA500050EBC45010BDD4F1020401FB1E2240F080712A
:20280000192C1DDC21FA04F0C4F12004A140114371F10042584110BD9C421ABF03EAD1528C
:202820009A420FE080EA010E0EF00043400004D0490016D143F0FF4010BD490008BFD3436A
:20284000180010BD9C4205D1D21AF7D001F00041484010BD4A0212BF0846484000F0004082
:2028600010BD4AB90902B1FA81F2914044B1A418C00140F000409EE7C90141F00041524257
:202880000002B0FA80F4A040141B94E7FF2212EAD05C1DBF12EAD153944593422BE09C44B0
:2028A000D30780EA01021A4043EA002043EA0121A1FB0030410038BF40007CF17F010BDBC4
:2028C000FE294ADA5B0842EAC15153EA006373F1004C51EB10207047D1F1080CDCF12001D5
:2028E0002FDB5B0810FA01F10B4373F1004120FA0CF05041704794451CBF02EAD153934285
:2029000080EA010202F000421DD0400019D0490017D05BB9634514D00902B1FA81F399402D
:20292000BCEB030CC00140F00040C1E70002B0FA80FC10FA0CF0B3EB0C0CC90141F00041E8
:20294000B6E71000704740000AD0490008D010F1807F94BF11F1807F02E042F0FF4070477A
:20296000D043704740000DD2010E7F390AD4D1F11F0104D4C00140F00040C84070477FF0B0
:202980000000704700207047704701490860704708ED00E061480078C0B24009C0B200283E
:2029A00008D0012808D0022808D0042817D0052817D019E05A4818E0594816E059480078D2
:2029C000C0B210F03F00401C5549484356490978C9B20909C9B2491CB0FBF1F005E0534828
:2029E00003E04FF4004000E0002051490978C9B211F00701C9B2002909D002290ED009D370
:202A0000042915D010D306291CD017D31EE0494908601EE04008474908601AE00321B0FBBD
:202A2000F1F04449086014E080084249086010E00621B0FBF1F03F4908600AE0C0083D4986
:202A4000086006E000093B49086002E03948002101607047384839490160374838490160D3
:202A6000384800210170324800210170364801210170364881210170354882210170354888
:202A80008321017034480021017034485C2101702248007850F002002049087030480078B4
:202AA0008007FBD52F48002101701F48012101701C48132101701948007850F0100017492A
:202AC000087027480078C006FBD51448007850F040001249087011480078C0B210F0E000B7
:202AE000214908601E480078C0B210F0E0001E4909688842EFD11D4800688005800D40F261
:202B0000FF31884209D01A481A4901601A4817490968018016480021016070470000014030
:202B200000093D003C00014038000140A086010010000140B401FF1F001C014051E5CC1A95
:202B4000AE1A33E50810014014000140180001401C000140200001402800014030000140F6
:202B600004000140340001401C03FF1F000100400CE0024054E5CC1A04E0024062F30F2224
:202B800062F31F42401810F0030308D0C91A1FD3DB0748BF00F8012D28BF20F8022D130024
:202BA00030B414461546103928BF20E93C00FAD8490728BF20E90C0048BF40F8042D8900F0
:202BC00028BF20F8022D48BF00F8012D30BC7047C91818BF00F8012DCB0728BF00F8012D3A
:202BE0007047000080B547480068002802D045480068804701BD80B542484068002802D01D
:202C000040484068804701BD80B53E488068002802D03C488068804701BD80B53948C06893
:202C2000002802D03748C068804701BD80B535480069002802D033480069804701BD80B5BB
:202C400030484069002802D02E484069804701BD80B52C488069002802D02A488069804707
:202C600001BD80B52748C069002802D02548C069804701BD80B52348006A002802D0214847
:202C8000006A804701BD80B51E48406A002802D01C48406A804701BD80B51A48806A0028CA
:202CA00002D01848806A804701BD80B51548C06A002802D01348C06A804701BD80B5114825
:202CC000006B002802D00F48006B804701BD80B50C48406B002802D00A48406B804701BD98
:202CE00080B50848806B002802D00648806B804701BD80B50348C06B002802D00148C06B93
:202D0000804701BD3C02FF1F000001000200010003000100020001000400010002000100BF
:202D2000030001000200010005000100020001000300010002000100040001000200010074
:202D4000030001000200010006000100020001000300010002000100040001000200010053
:202D6000030001000200010005000100020001000300010002000100040001000200010034
:202D8000030001000200010007000100020001000300010002000100040001000200010012
:202DA0000300010002000100050001000200010003000100020001000400010002000100F4
:202DC0000300010002000100060001000200010003000100020001000400010002000100D3
:202DE0000300010002000100050001000200010003000100020001000400010002000100B4
:202E0000030001000200010010B500240CE031480068E4B26100C84010F0030F03D02000F1
:202E2000C0B200F005F8641CE4B2082CEFDB10BD70B50400E4B2042094FBF0F04FF48071CC
:202E4000E4B2402202FB04F201FB002000F1804515F514352E7CF6B270070ED5287C10F012
:202E6000FB002874E4B2184850F82400002804D0E4B2154850F824008047F6B2B0070ED5F5
:202E8000287C10F0FD002874E4B2114850F82400002804D0E4B20E4850F824008047F6B2D7
:202EA000F0070ED5287C10F0FE002874E4B2074850F82400002804D0E4B2044850F824005F
:202EC000804770BD00000000BC02FF1F7C02FF1F9C02FF1F9010034010B5074979441831CC
:202EE000064C7C44163404E00A68081D511888470146A142F8D110BD0800000028000000D3
:202F00003BDFFFFF7C010000B801FF1F00000000E7DEFFFFB80100005C0100000000FF1F4E
:202F20000000000000F009F8002801D0FFF7D4FF0020FFF74FFB00F002F80120704700F0CC
:202F400001B800000746384600F002F8FBE7000080B5C046C046024A11001820ABBEFBE700
:202F6000260002000148804701480047552A0000812F000025642E25303264250000000093
:202F8000C046C046C046C046FFF7CCFF25642E2564250000FFF7FEBFFFF7FEBFFFF7FEBFDA
:202FA000FFF7FEBFFFF7FEBFFFF7FEBFFFF7FEBFFFF7FEBFFFF7FEBFFFF7FEBFFFF7FEBF79
:202FC000FFF7FEBFFFF7FEBFFFF7FEBFFFF7FEBFFFF7FEBFFFF706BEFFF70DBEFFF714BE2F
:202FE000FFF71BBEFFF722BEFFF729BEFFF730BEFFF737BEFFF73EBEFFF745BEFFF74CBE95
:20300000FFF753BEFFF75ABEFFF761BEFFF768BEFFF76FBEFFF7FEBFFFF7FEBFFFF7FEBF2E
:20302000FFF7FEBFFFF7FEBFFFF7FEBFFFF7FEBFFFF7FEBFFFF7E8BEFFF7FEBFFFF7FEBF0F
:20304000FFF7FEBFFFF7FEBFFFF7FEBFFEF748BCFEF799BCFEF7EABCFEF73BBDFEF78CBD4E
:20306000FEF7DDBDFEF72EBEFEF77FBEFFF7FEBFFFF7FEBF82B0002100915FF080410968E3
:203080004FF6FD7211405FF0804211605FF08041096851F001015FF0804211605FF0804153
:2030A0000968019141F25051AA220A8040F6A82155220A8041F2505180220A8041F250510F
:2030C000AA220A8040F6A82155220A803021018001880907FCD5009900290BD101888906A8
:2030E00002D55FF0FF31009101880906F3D501210091F0E75FF0804000684FF6FE7108408C
:203100005FF0804108605FF08040006850F002005FF0804108605FF0804000680190009866
:2031200002B0704782B0002200920288ADF804200FE00288920602D55FF0FF320092028869
:2031400012F0800289B211F080039A4201D101220092009A002AECD0009802B070473EB555
:2031600004000D00002001905FF0804000684FF6FD7108405FF0804108605FF0804000682C
:2031800050F001005FF0804108605FF08040006802902800ADF8000041F25050AA21018081
:2031A00040F6A8205521018041F25050A0210180BDF800002080BDF800102000FFF7B2FF24
:2031C00001900198012817D1280CADF8000041F25050AA21018040F6A8205521018041F294
:2031E0005050A0210180BDF800006080BDF80010A01CFFF797FF01905FF0804000684FF6FE
:20320000FE7108405FF0804108605FF08040006850F002005FF0804108605FF080400068D7
:20322000029001983EBD000000B4C40443524331363A85ABFFFFFFFFFFFFFFFFFFFFFFFF4F
:20324000FFFFFFFFFFFFFFFFFFFFFFFFFFFFFFFFFFFFFFFFFFFFFFFFFFFFFFFFFFFFFFFF8E
:20326000FFFFFFFFFFFFFFFFFFFFFFFFFFFFFFFFFFFFFFFFFFFFFFFFFFFFFFFFFFFFFFFF6E
:20328000FFFFFFFFFFFFFFFFFFFFFFFFFFFFFFFFFFFFFFFFFFFFFFFFFFFFFFFFFFFFFFFF4E
:2032A000FFFFFFFFFFFFFFFFFFFFFFFFFFFFFFFFFFFFFFFFFFFFFFFFFFFFFFFFFFFFFFFF2E
:20800000F093FF1F61A0010029A101002DA1010031A1010035A1010039A10100AA55AA55A0
:208020000000000000000000000000003DA1010041A10100000000007BDC00005D160100B3
:208040004DA1010051A1010055A1010059A101005DA1010061A1010065A101004599010064
:2080600057990100699901007B9901008D9901009F990100B1990100C3990100D599010080
:20808000E7990100F99901000B9A01001D9A01002F9A0100419A0100539A0100A9A101008F
:2080A000ADA10100B1A10100B5A10100B9A10100BDA10100C1A10100C5A1010023FE000022
:2080C000BD9D010005A20100D1A10100D5A10100D9A10100A19F010085DF000039E000007A
:2080E000EDE00000A1E1000055E2000009E30000BDE3000071E4000001A2010005A20100CD
:208100000100DFF8D82B1078FF2801D1002007E01078C9B2814201D1100001E02832F2E740
:20812000704710B50400002C02D15FF0FF3010E0201D02F089F8002802D05FF0FF3008E042
:208140000020A0610222002114F1240002F0F7F9002010BD2DE9F04782B005000E00170018
:2081600098460A9C5FF000095FF0000A002E02D0BFB2002F01D100201CE02800C0B202F0B0
:20818000B1FC8246BAF1000F01D1002012E0A4B200944346BFB23A0031002800C0B202F0F1
:2081A000BCFA8146B9F1000F02D500208146FFE7484680B2BDE8F6872DE9FC410400002587
:2081C00000208DF80400002600275FF00008002C02D15FF0FF30A8E0201D0500002D05D009
:2081E0002868002802D06868022802D25FF0FF309BE0A8686968B0FBF1F201FB1200A860A9
:20820000E8686968B0FBF1F201FB1200E860A06900280BD0A868401C6968B0FBF1F201FB86
:208220001200E968884201D100207EE0A86869680818E968401A69686A68521E121AB0FB2B
:20824000F1F001FB002000280DD0A86869680818E968401A69686A68521E121AB0FBF1F0A5
:2082600001FB002700E00127002F01D00127FFE7207808280CD10020009000233A0092B2CF
:2082800001A9DFF85C0A006802F04CFE060019E0207809280CD10120009000233A0092B25C
:2082A00001A9DFF83C0A406802F03CFE060009E00A2000900A233A0092B201A92078FFF797
:2082C00049FF0600012E02DA5FF0FF302DE000208046B04528D2A868401C6968B0FBF1F21A
:2082E00001FB1200E968884208D1E868401C6968B0FBF1F201FB1200E8600AE0A868696850
:20830000B0FBF1F201FB1200296801AA18F802204254A868401C6968B0FBF1F201FB1200E4
:20832000A86018F10108D4E70020BDE8F681F8B504000D0016000027E4B2082C0AD1002369
:20834000B6B232002900DFF89809006802F0DEFD070015E0E4B2092C0AD10023B6B232004E
:208360002900DFF87C09406802F0D0FD070007E0320092B229002000C0B202F0C9FA070036
:208380003800F2BDF8B50400002500260027002C02D15FF0FF3025E0201D0600002E05D00B
:2083A0003068002802D07068022802D25FF0FF3018E0E06905000020070070680121B0FBC5
:2083C000F1F087420DD22000FFF7F6FE002808D12800002805D02000A847002801D07F1C41
:2083E000EBE70020F2BD2DE9F04104000D0016001F005FF00008102008F8040018F10108B2
:208400000622711C18EB040002F0DEFD18F1060818F1010808F8047018F10108BFB2380A71
:2084200008F8040018F10108BFB217EB0808434600224146200002F065F808F8040018F1F5
:208440000108162008F8040018F101084046BDE8F08170B504000D00E4B2002C01D0002D35
:2084600002D15FF0FF304FE006220121287802F0D7FD002802D15FF0FF3045E0E4B220096F
:20848000C0B240080600F6B2082E02DB5FF0FF303AE0F6B2DFF84C0850F826006860C4F309
:2084A0008100060002220021F6B2300002F0B8FD002802D15FF0FF3026E0F6B2DFF8280843
:2084C00050F826002872C4F30010060001220021F6B2300002F0A4FD002802D15FF0FF309F
:2084E00012E0701C687214F00300060003220021F6B2300002F094FD002802D15FF0FF30FD
:2085000002E0701DA872002070BD2DE9F04704000D00B5F1120600275FF000085FF0000993
:208520005FF0000A132D02DA5FF0FF3053E000200700B7423EDA385D682839D13819401C01
:2085400002F0A5FD80463819C01C02F0A0FD81461FFA88F81FFA89F9C84529D11FFA88F86A
:20856000042098FBF0F81FFA88F817EB0800083085421DDB38194079682819D1424692B272
:208580000621381902F06BFD82461FFA88F818EB0700001980795FFA8AFA824508D11FFAF6
:2085A00088F818EB07000019C079162800D101E07F1CBEE7B74202DB5FF0FF300BE018F167
:2085C00008081FFA88F842463919200002F0EEFD1FFA88F84046BDE8F0872DE9F04704008F
:2085E0000D0016000027A8465FF000095FF0000A002D02D15FF0FF3054E0B6B20B2E02DA63
:208600005FF0FF304EE000200700BFB2B6B2B6F10A00874244DABFB27819804698F80000BE
:2086200010283BD1002C07D0062218F10101200002F0C8FD002831D198F808008246B6B2F7
:20864000BFB21FFA8AFA1AEB07000B30864225DB1AF1090292B2390089B2280002F0FFFC1A
:2086600081461FFA8AFA1AEB0800407A5FFA89F9814513D11FFA8AFA1AEB0800807A162868
:208680000CD11AF10B0A1FFA8AFA52464146280002F08CFD1FFA8AFA504603E07F1CB4E732
:2086A0005FF0FF30BDE8F08770B504000D000026002C02D15FF0FF3012E06A1E92B2012167
:2086C000200002F0CCFC06002078102808D1ADB2281910F8010CF6B2B04201D10020FFE7EA
:2086E00070BD38B504000D00002C02D15FF0FF3013E02A0092B221000020FFF76EFF0128A4
:2087000001DB022009E0290089B22000FFF7CCFF002801D1012000E0002032BD2DE9F047D6
:2087200004000D0016001F00DDF820805FF0000A5FF00009002E02D15FF0FF3042E01FFA13
:208740008AFA10200AF808001AF1010A062200211FFA8AFA1AEB080001F0F1FE1FFA8AFAD5
:208760000AF808501AF1060A1FFA8AFA0AF808401AF1010A1FFA8AFA0AF808701AF1010A5A
:20878000BFB23A0031001FFA8AFA1AEB080002F01BFC17EB0A0A524692B20021404602F0BF
:2087A0005EFC81461FFA8AFA0AF808901AF1010A1FFA8AFA16200AF808001AF1010A1FFA3F
:2087C0008AFA5046BDE8F0872DE9F64FB5B004001D0002A8C82102F027FD5FF0000B5FF030
:2087E0000209002600275FF0000A00208DF806005FF0000800208DF8040000208DF8050073
:20880000002C02D15FF0FF30C6E1DFF8040E0068C078012803D13A208DF804000CE0DFF808
:20882000F00D0068C078022803D164208DF8040002E0C8208DF80400DFF8D40D00680079A4
:208840008DF805009DF8D800002840F01A815FFA89F919F80400060019F101091FFA8BFB85
:2088600002A80BF800601BF1010B002082465FFA8AFAF6B2B24580F0F8805FFA89F919F89B
:208880000400070019F10109FFB23800012810D002284BD003286ED0042847D0052800F0B9
:2088A000AA80062842D00B2800F0A5800C283DD0D8E01FFA8BFB02A804210BF800101BF180
:2088C000010B002082465FFA8AFABAF1030F2CDA5FFA89F919F8040003F0D4FAC0B20A21B6
:2088E00090FBF1F000905FFA89F919EB0400407803F0C8FA0A22009902FB00109DF80410B1
:2089000090FBF1F0804619F102091FFA88F8424602211FFA8BFB02A81BEB000002F0C9FBC7
:208920001BF1020B1AF1010ACDE79BE0FFB2022F04D1287850F00100287013E0FFB2042FD2
:2089400004D1287850F0020028700BE0FFB2062F04D1287850F00400287003E0287850F0E3
:20896000080028701FFA8BFB02A808210BF800101BF1010B76E01FFA8BFB02A805210BF8F2
:2089800000101BF1010B002082465FFA8AFABAF1030F2FDA5FFA89F919EB0400407803F096
:2089A00071FAC0B20A2190FBF1F000905FFA89F919EB0400807803F065FA10F0EF010A226A
:2089C000009802FB01009DF8051090FBF1F0804619F103091FFA88F8424602211FFA8BFB2C
:2089E00002A81BEB000002F064FB1BF1020B1AF1010ACAE736E0FFB2052F08D11FFA8BFB23
:208A000002A807210BF800101BF1010B07E01FFA8BFB02A806210BF800101BF1010B5FFA7E
:208A200089F919F8040003F02DFAC0B200905FFA89F919EB0400407803F024FA0A22009912
:208A400002FB0010804619F102091FFA88F8424602211FFA8BFB02A81BEB000002F029FB85
:208A60001BF1020B1AF1010A01E700945B469BB202AADFF89C0B006881780420FFF74EFE6C
:208A80008AE0092081461FFA8BFB02A810210BF800101BF1010B1FFA8BFB02A801210BF869
:208AA00000101BF1010B5FFA89F919F80400060019F101091FFA8BFB02A80BF800601BF1CC
:208AC000010B002082465FFA8AFAF6B2B2454BD25FFA89F919F80400070019F10109FFB24D
:208AE0003800001F032802D9001F3AD039E0FFB2042F08D11FFA8BFB02A801210BF800109C
:208B00001BF1010B1FE0FFB2052F08D11FFA8BFB02A803210BF800101BF1010B13E0FFB244
:208B2000062F08D11FFA8BFB02A80B210BF800101BF1010B07E01FFA8BFB02A805210BF82E
:208B400000101BF1010B5FFA89F919F804001FFA8BFB02A90BF8010019F101091BF1010B83
:208B6000FFE71AF1010AAEE7BBF1010292B2012102A802F074FA1FFA8BFB02A90BF80100F7
:208B80001BF1010B1FFA8BFB5A4602A9200002F01BFA1FFA8BFB584637B0BDE8F08FF0B5BF
:208BA000D1B037A8642102F03FFB0025002605A8C82102F039FB002702A8DFF8241CB1E81C
:208BC0000C10A0E80C100C390C38ADB237A8042129546D1CDFF8380A006800F20600060064
:208BE000ADB237A8042129546D1C00200400E4B2032C09DA00220221ADB237A8281802F08B
:208C000058FAAD1C641CF2E7DFF8040A00680C300600ADB237A8052129546D1C00200400C3
:208C2000E4B2032C09DA00220221ADB237A8281802F03FFAAD1C641CF2E7DFF8D409006860
:208C400000F212000600ADB237A8062129546D1C00200400E4B2032C0ADA32880221ADB296
:208C600037A8281802F025FAB61CAD1C641CF1E7DFF89C09006818300600ADB237A8072139
:208C800029546D1C00200400E4B2032C0ADA32880221ADB237A8281802F00BFAB61CAD1C14
:208CA000641CF1E705A800902B009BB237AADFF86009006881780420FFF730FD070040F2A5
:208CC000DC50019003200090C8233A0005A902A800F00CF880B251B0F0BD0000B801FF1FFC
:208CE0009C8EFF1F509F0100ACA001002DE9F04F83B004000D0016001F00DDF83080DDF8C7
:208D0000349000208DF8050000208DF804005FF0000ACB46002D06D0002E04D4002F02D0C8
:208D2000BBF1000F02D55FF0FF304BE0A07A0090637A227A6168207803F077FA320092B29A
:208D40002900207801F0E4FD3A000021280001F0F6FB00200600BBF1000F03D55FF0FF30E4
:208D600082462EE000208246C82000903223BA1B7119207801F0D1FC8246BAF1010F01DB54
:208D80001AEB0606BBF1640BB8F1020F0AD1132EE1DB31002800FFF7B8FB8246BAF1010F90
:208DA000D9DB0EE0B8F1010F0BD00B2ED3DB320092B229000020FFF710FC8246BAF1010F52
:208DC000C9DB5046BDE8FE8F2DE9F04FD7B004000D0000260020089002A8182102F024FA69
:208DE00000275FF0000809A8642102F01DFA5FF0000925A8C82102F017FA5FF0000A5FF0FD
:208E0000000B22A8DFF8F019B1E80C10A0E80C100C390C3800200600DFF8F4070068C07F1C
:208E2000864280F0E2830E20DFF8E417096800FB061090F82000E4B2A04240F0D4830E203E
:208E4000DFF8CC17096800FB061090F82100022840F0C983012083461822DFF8B407006869
:208E6000811D02A802F0B0F8E4B22000012826D0022800F02D81032867D0042800F0C780AE
:208E8000062800F0C480072800F02281082800F06781092800F0AB810A2800F0A8810B28DB
:208EA00000F0E9810D2800F03682102800F09E82172800F04083182800F0DF8266E3012D39
:208EC00024D102220E20DFF84817096800FB061010F1220105A802F077F802220E20DFF838
:208EE0003017096800FB061010F126010DF1160002F06AF802220E20DFF81417096800FB59
:208F0000061010F12A0106A802F05EF805A8070009A8012109F8001019F1010909A8062195
:208F200009F8001019F1010900200600032E0BD23A88022109A819EB000002F0BAF8BF1CBF
:208F400019F10209761CF1E720E3E8070BD50E20DFF8BC16096800FB061090F82200ADF818
:208F60000E00ADF80800A8070BD50E20DFF8A016096800FB061090F82600ADF81000ADF862
:208F80000A0068070BD50E20DFF88416096800FB061090F82A00ADF81200ADF80C0009A88C
:208FA000022109F8001019F1010902A8070009A8042109F8001019F1010900200600032E66
:208FC0000BD23A88022109A819EB000002F071F8BF1C19F10209761CF1E70DF10E00070052
:208FE00009A8052109F8001019F1010900200600032E0BD23A88022109A819EB000002F0B5
:2090000058F8BF1C19F10209761CF1E7BEE215F0030080465FFA88F8B8F1000F0DD05FFA71
:2090200088F80E20DFF8E815096800FB061018EB000090F82100ADF80800C5F381008046D4
:209040005FFA88F8B8F1000F0DD05FFA88F80E20DFF8BC15096800FB061018EB000090F8E6
:209060002500ADF80A00C5F3011080465FFA88F8B8F1000F0DD05FFA88F80E20DFF890159C
:20908000096800FB061018EB000090F82900ADF80C0009A8012109F8001019F1010902A847
:2090A000070009A8042109F8001019F1010900200600032E0BD23A88022109A819EB0000E0
:2090C00001F0F7FFBF1C19F10209761CF1E75DE2012D25D102220E20DFF83415096800FB0E
:2090E000061010F122010DF11A0001F06DFF02220E20DFF81C15096800FB061010F12601BD
:2091000007A801F061FF02220E20DFF80415096800FB061010F12A010DF11E0001F054FFFF
:209120000DF11A00070009A8012109F8001019F1010909A8072109F8001019F101090020FA
:209140000600032E0BD23A88022109A819EB000001F0AFFFBF1C19F10209761CF1E715E271
:20916000E8070AD5BDF81A00B4304FF4B47190FBF1F201FB1200ADF81A00A8070AD5BDF888
:209180001C00B4304FF4B47190FBF1F201FB1200ADF81C0068070AD5BDF81E00B4304FF4E2
:2091A000B47190FBF1F201FB1200ADF81E000DF11A00070009A8012109F8001019F1010934
:2091C00009A8072109F8001019F1010900200600032E0BD23A88022109A819EB000001F0D2
:2091E00068FFBF1C19F10209761CF1E7CEE1E80709D50E20DFF81814096800FB061090F8F7
:209200002200ADF80E00A80709D50E20DFF80014096800FB061090F82600ADF8100068077F
:2092200009D50E20DFF8E813096800FB061090F82A00ADF812000DF10E00070009A801217F
:2092400009F8001019F1010909A8052109F8001019F1010900200600032E0BD23A880221D4
:2092600009A819EB000001F024FFBF1C19F10209761CF1E78AE1E8070DD50E20E4490968C3
:2092800000FB061090F82200ADF80E006420ADF81200ADF81000A8070DD50E20DC4909681B
:2092A00000FB061090F82600ADF810006420ADF81200ADF80E0068070DD50E20D44909683F
:2092C00000FB061090F82A00ADF812006420ADF80E00ADF810000DF10E00070009A8012142
:2092E00009F8001019F1010909A8052109F8001019F1010900200600032E0BD23A88022134
:2093000009A819EB000001F0D4FEBF1C19F10209761CF1E73AE109A8042109F8001019F16F
:20932000010902A8070009A8042109F8001019F1010900200600032E0BD23A88022109A8AD
:2093400019EB000001F0B5FEBF1C19F10209761CF1E70DF10E00070009A8052109F8001010
:2093600019F1010900200600032E0BD23A88022109A819EB000001F09CFEBF1C19F1020990
:20938000761CF1E705A8070009A8062109F8001019F1010900200600032E0BD23A88022199
:2093A00009A819EB000001F084FEBF1C19F10209761CF1E70DF11A00070009A8072109F832
:2093C000001019F1010900200600032E0BD23A88022109A819EB000001F06BFEBF1C19F15C
:2093E0000209761CF1E700208346CFE0012D0CD10020ADF81200ADF81000ADF80E00ADF871
:209400000C00ADF80A00ADF8080009A8022109F8001019F1010902A8070009A8042109F863
:20942000001019F1010900200600032E0BD23A88022109A819EB000001F03BFEBF1C19F12B
:209440000209761CF1E70DF10E00070009A8052109F8001019F1010900200600032E0BD254
:209460003A88022109A819EB000001F022FEBF1C19F10209761CF1E788E015F003008046B1
:209480005FFA88F8B8F1000F0CD05FFA88F80E205F49096800FB061018EB000090F8210082
:2094A000ADF80800C5F3810080465FFA88F8B8F1000F0CD05FFA88F80E205549096800FB82
:2094C000061018EB000090F82500ADF80A00C5F3011080465FFA88F8B8F1000F0CD05FFAC2
:2094E00088F80E204A49096800FB061018EB000090F82900ADF80C0009A8012109F8001060
:2095000019F1010902A8070009A8042109F8001019F1010900200600032E0BD23A88022172
:2095200009A819EB000001F0C4FDBF1C19F10209761CF1E72AE0012D06D10020ADF8120084
:20954000ADF81000ADF80E0009A8012109F8001019F101090DF10E00070009A8052109F8C0
:20956000001019F1010900200600032E0BD23A88022109A819EB000001F09BFDBF1C19F18B
:209580000209761CF1E700208346FFE7B9F1000F29D025A800904B469BB209AA1C4800681B
:2095A00081780420FFF7BAF8089040F2DC50019003200090C823089A25A922A8FFF796FB00
:2095C00001280DDB002006009DF89D00864209D225A810EB4600C07A50EA0A0A761CF3E77D
:2095E0000120824601E0761C16E45FFA8BFBBBF1000F07D129002000C0B203F07BF950EA47
:209600000A0082465046C0B257B0BDE8F08F00003C04FF1F2DE9F04F85B004000D00002626
:2096200000275FF0000A5FF000085FF0000900A8102101F0F9FD5FF0000BE078217910EBF4
:20964000012006006079A17910EB01200700607AA17A10EB01208046B6B2002E02D15FF03E
:20966000FF307CE0BFB2B6B2B74202D35FF0FF3075E01FFA88F8B8F1000F02D15FF0FF3043
:209680006DE0BFB2781CB6B2B04203DADFF8840BA0F80080BFB2002F02D1002003F08EFFB0
:2096A000DFF8700B0088BFB2784382461FFA88F818EB0A00B0F5802F02D35FF0FF304EE061
:2096C00043469BB214F10B0251465FF4002003F0A3FF6078012823D11022002100A800F023
:2096E0002EFF00208146B9F1100F08D200A819F50021097809F8001019F10109F3E701203B
:209700008DF80000012003F059FF102300AA00215FF4402003F080FFDFF8FC0A01210170C5
:209720001FFA8BFB0BF805701BF1010B1FFA8BFBBFB2380A0BF805001BF1010B1FFA8BFBE9
:2097400000200BF805001BF1010B1FFA8BFB00200BF805001BF1010B1FFA8BFB584605B0F8
:20976000BDE8F08F30B58DB00400002500A8342101F05AFD3222002100A800F0E0FE19A190
:2097800000A803F07CFFDFF8940A007830308DF8010015A100A803F072FF14A100A803F0CE
:2097A0006EFF13A100A803F06AFF12A100A803F066FFDFF86C1A00A803F061FF00208DF8D4
:2097C000310000A803F06AFF0500ADB22A0000A9200001F0F9FBADB228000DB030BD0000E7
:2097E0007CA00100560000002D00000031000000303800003031000088A001002DE9FF4F42
:20980000A5B0289C259D07A8DFF8181A4CC94CC00C390C3800208DF8080000200590002089
:2098200004900026002700208DF80D005FF000085FF0000900208DF80B0000208DF80A0087
:2098400000208DF80900207A617A4FF4807202FB010AE079012840F08C81607B8DF8080081
:209860009DF80800C0281AD0C12825D0CE282BD0CF2833D0D02800F0FC80D12800F02181C1
:20988000D22800F02A81D32800F04F81D4282DD0D52800F0D980DF2800F0538159E1A07B19
:2098A000DFF8841909680870002002F0BFF90020A873012080464CE1DFF86C090068007806
:2098C000A8730120804644E115F10E0114F10E00FFF7A0FE10EB080080463AE115F10E00AD
:2098E000FFF740FF10EB0800804632E1A07B1F2801DAA07B00E01E208DF800005FF0020B00
:20990000002006009DF80000F6B2864280F086805FFA8BFB1BEB0400407B8DF80B001BF166
:20992000010B5FFA8BFB1BEB0400407B8DF80A001BF1010B00208DF8090000200700DFF824
:20994000E8080068C07FFFB287422FD2FFB20E20DFF8D418096800FB071090F820009DF893
:209960000B10884220D1FFB20E20DFF8BC18096800FB07109DF80A1080F821100C225FFA25
:209980008BFB1BEB040010F10D01FFB20E20DFF898381B6800FB0730223001F015FB1BF18E
:2099A0000C0B01208DF809007F1CC8E79DF80900002831D1FFB20E20DFF86C18096800FB29
:2099C00007109DF80B1080F82010FFB20E20DFF85818096800FB07109DF80A1080F8211017
:2099E0000C225FFA8BFB1BEB040010F10D01FFB20E20DFF834381B6800FB0730223001F027
:209A0000E3FA1BF10C0BDFF820080068C07F401CDFF814180968C877761C73E740F2A512BC
:209A20000021DFF8040800681F3001F018FBDFF8F817096881F8C401032002F0F7F80020AE
:209A4000A8730120804684E0DFF8DC070068C07F0E214843401C80461FFA88F84246DFF86B
:209A6000C807006810F11F0115F10E0001F0ACFA6FE01FFA8AFABAF10400042802D2012027
:209A8000049019E0042214F10E01DFF89C070068401C01F099FA04220021DFF88C07006824
:209AA000401C01F0DCFADFF8801709684871012002F0BCF8002004900498A87301208046D2
:209AC00047E00422DFF860070068411C15F10E0001F07AFA042080463BE01FFA8AFABAF170
:209AE0000400182802D20120049019E0182214F10E01DFF834070068801D01F065FA1822B1
:209B00000021DFF824070068801D01F0A8FADFF8181709688877022002F088F800200490CC
:209B20000498A8730120804613E01822DFF8F8060068811D15F10E0001F046FA182080463C
:209B400007E00421002002F0BAF80020A87301208046607B6873E0798038E871A07AA872BF
:209B6000E07AE872207B287318F104002799088056E1E079022844D100200600207BF6B26E
:209B800086422FD2F6B214EB4600407B8DF80800207A001F8DF80D00207A052805D1F6B237
:209BA00014EB4600807B059009E09DF80D20F6B214EB460010F10E0105A801F005FAF6B2E3
:209BC00015EB4600F6B214EB4601497B417305999DF80800FFF7F8F8F6B215EB46018873CE
:209BE000761CCBE7E0798038E871A07AA872E07AE872207B2873F6B27000C01C279908805D
:209C00000EE1E07905284ED1A07B8DF80E0014F10F0001F03CFA8046BDF8C8001FFA88F8EB
:209C2000804502D3BDF8C880FFE706208DF81C0007A99DF80E00FEF70CFC049040F2DC509E
:209C40000190022000901FFA88F843461FFA88F8424614F1110107A8FFF748F88146B9F111
:209C6000010F07DB4A4614F1110115F1100001F09DFA01E000208146607B687385F80E9014
:209C80004FF4807099FBF0F0E873E0798038E871A07AA872E07AE872207B287319F106002A
:209CA00027990880BCE0E079042840F08B800CA8642101F0B9FA0AA8DFF870150CC90CC074
:209CC000083908385FF0000B002006901FFA8AFABAF1650F01D2D34601E05FF0640B1FFA93
:209CE0008BFB5A4614F10A010CA801F06DF9594689B20CA8FEF7F5FC06900698022820D160
:209D000006220AA90DF1310001F05EF940F2DC5001900320009064231FFA8BFB5A460CA9D4
:209D200007A8FEF7E3FF8146B9F1010F06DB4A460CA915F10A0001F039FA3CE000208146BF
:209D400039E00698012836D100208DF80C0003AB0022594689B20CA8FEF736FD83461FFA03
:209D60008BFBBBF1000F24D040F2DC5001900320009064231FFA8BFB5A460CA907A8FEF7ED
:209D8000B5FF8146B9F1010F10DB03AB0122494689B20CA8FEF718FD83461FFA8BFB5A4642
:209DA0000CA915F10A0001F001FA04E00020814601E000208146E0798038E8712798A0F89E
:209DC00000902DE000200600207BF6B2864219D2F6B214EB4600407B8DF80800F6B214EBEE
:209DE0004600807B0590F6B215EB4600F6B214EB4601497B4173F6B215EB46000121817335
:209E0000761CE1E7E0798038E871A07AA872E07AE872207B2873F6B27000C01C2799088024
:209E2000002029B0BDE8F08F2DE9F84F04002500002600275FF0FF385FF000095FF0000AFB
:209E40005FF0000B002D02D15FF0FF302CE1281D0600002E05D03068002802D0706802283B
:209E600002D25FF0FF301FE1B06871680818F168401A7168B0FBF1F201FB12008246BAF1E4
:209E8000000F02D15FF0FF300EE1A869002801D0002009E1B0687168F2687368B2FBF3FC9D
:209EA00003FB1C22B0FBF1F301FB130090420DD2F0687168B0FBF1F201FB1201300000F029
:209EC00018FB002802D05FF0FF30EDE000200700574580F0DE80F06838187168B0FBF1F28A
:209EE00001FB12003168405C102840F0D080B81D504580F0CE80F0683818401C7368062238
:209F0000CB49B0FBF3FC03FB1C003368C01801F059F9002820D0F0683818401C7368992211
:209F20000621B0FBF3FC03FB1C003368C01801F080F8002810D1F0683818401C7368FF2261
:209F40000621B0FBF3FC03FB1C003368C01801F070F8002800F09B80F0683818401C71684A
:209F60000622B0FBF1F301FB130031684118B14801F02AF817F10900504580F08A80F068A5
:209F8000381808307168F268BA1809327368B0FBF1FC01FB1C003168405CB2FBF3F103FBAA
:209FA00011213268895C4FF4807202FB010081461FFA89F919EB0700093050450BD3A88C70
:209FC000401CA884A88C40F20241884202DB0020A8845CE05DE00020A8841FFA89F919EBF9
:209FE00007000A30504554D2F068381871681FFA89F919F10A03B0FBF1F201FB12027168BB
:20A00000306800F07FFA8346F06838181FFA89F919EB00000A307168B0FBF1F201FB120080
:20A020003168405C5FFA8BFB834530D11FFA89F919EB07000B3050452BD2F06838181FFA0F
:20A0400089F919EB00000B307168B0FBF1F201FB12003168405C162819D170681FFA89F9FA
:20A0600019F11601884212D3F06838187168B0FBF1F201FB12003168401868611FFA89F99E
:20A0800019EB07000C30A8610020804601E07F1C1EE7F06838187168B0FBF1F201FB1200EC
:20A0A000F0604FFA88F84046BDE8F28F2DE9F04383B004002500002600275FF000085FF043
:20A0C00000090020ADF80400002D02D15FF0FF3055E0281D0600002E05D03068002802D01B
:20A0E0007068022802D25FF0FF3048E0A869002801D1002043E04FF48062A5214E4800F025
:20A100001EFA68690700A8698046404680B200903B0001AA4FF480614748FFF76FFBBDF882
:20A1200004303A004FF480614348FEF75CF9814699220621414800F07CFF00280CD1FF22F5
:20A1400006213E4800F075FF002805D14A4692B239492878FEF7EBF8AA690021686900F02D
:20A16000EEF9F068A96908187168B0FBF1F201FB120028610020A861686868610020BDE8E9
:20A18000FE8370B50400002500262000C0B2FDF7B7FF0500002802D15FF0FF301AE02800EE
:20A1A000FDF7BFFF002802D05FF0FF3012E02800FEF7E8F8002D06D0286A06003000002893
:20A1C00001D02800B047642300220021002003F0B6FAECE770BD10B58AB005A818491422BF
:20A1E00003F022FB02A817491CC91CC00C390C3840F2DC500190032000901323132205A940
:20A2000002A8FEF773FD4FF47A7000F092FF00200AB010BDB601FF1FDF8FFF1FC78FFF1F05
:20A2200010A1010094A001003C04FF1F18A101002C04FF1F748EFF1F885DFF1F895DFF1FAA
:20A24000FC9F0100A0A0010010B50400002C05D02068002802D06068022802D25FF0FF3091
:20A2600009E062680021206800F069F90020A0600020E060002010BDF0B5030000240025D2
:20A28000002B05D01868002802D05868022802D25FF0FF302CE15868814202D35FF0FF3025
:20A2A00026E1002901D1002022E198685E683018DE68801B5E68B0FBF6F706FB170005000F
:20A2C000002D47D1D2B2002A10D0D86808185E68B0FBF6F706FB1700D860986808185E68B7
:20A2E000B0FBF6F706FB1700986013E0D8685E683018401A5E68B0FBF6F706FB1700D8606D
:20A3000098685E683018401A5E68B0FBF6F706FB170098600020040098685E683018DE68EF
:20A32000801B5E685F687F1E3F1AB0FBF6F006FB0070401C84420BD2986820185E68B0FB55
:20A34000F6F706FB17001E6800278755641CE3E70020CDE0D2B2002A65D000200400AC4263
:20A360001BD2D8682818401E001B08185E68DF68EF197F1E3F1BD3F804C0B0FBF6FE06FB9C
:20A380001E001E68B7FBFCFE0CFB1E77D3F800C017F80C708755641CE1E7D2B2002A10D009
:20A3A000D86808185E68B0FBF6F706FB1700D860986808185E68B0FBF6F706FB1700986001
:20A3C00013E0D8685E683018401A5E68B0FBF6F706FB1700D86098685E683018401A5E6806
:20A3E000B0FBF6F706FB170098600020040098685E683018DE68801B5E685F687F1E3F1A1F
:20A40000B0FBF6F006FB0070401C84426FD2986820185E68B0FBF6F706FB17001E6800277C
:20A420008755641CE3E700200400AC4219D2D86820185E683018401A5E68DF68E719D3F841
:20A4400004C0B0FBF6FE06FB1E001E68B7FBFCFE0CFB1E77D3F800C017F80C708755641C3A
:20A46000E3E7D2B2002A10D0D86808185E68B0FBF6F706FB1700D860986808185E68B0FBE5
:20A48000F6F706FB1700986013E0D8685E683018401A5E68B0FBF6F706FB1700D860986876
:20A4A0005E683018401A5E68B0FBF6F706FB170098600020040098685E683018DE68801BB3
:20A4C0005E685F687F1E3F1AB0FBF6F006FB0070401C84420BD2986820185E68B0FBF6F762
:20A4E00006FB17001E6800278755641CE3E70020F0BD38B504000D00002229002000FFF745
:20A50000BBFE32BDF0B4040000250026002C03D0002901D0002B01D100200EE00020050077
:20A520009D4208D2A818B0FBF1F701FB1700005D86196D1CF4E73000C0B2F0BC704770B572
:20A5400004000D0016002A003100200003F098F9200070BD0100C9B2012909D020D30329EA
:20A560000ED009D3052913D00ED3062914D017E0DFF89427100015E0DFF89027100011E0FF
:20A58000DFF88C2710000DE0DFF88827100009E0DFF88427100005E0DFF88027100001E0CF
:20A5A0000022100070472DE9F04385B004000D00160000272000C0B2FFF7CCFF8146B9F122
:20A5C000000F01D10120A5E000AA290089B2D9F8080003F04EFA9DF800000A280BD102200D
:20A5E0003070E4B2032C04D0E4B2052C01D0E4B2062C00208EE0D9F80400002800F07F8048
:20A6000003F01EFB0700D9F80400401EC9F80400D9F81000411CC9F8101000788046E4B23C
:20A62000012C09D04AD3032C1CD010D3052C2FD023D3062C37D041E0D9F81000DFF8E016CB
:20A64000884203D1DFF8DC06C9F8100036E0D9F81000DFF8D416884203D1DFF8D006C9F80E
:20A6600010002BE0D9F81000DFF8C416884203D1DFF8C006C9F8100020E0D9F81000DFF869
:20A68000B816884203D1DFF8B406C9F8100015E0D9F81000DFF8A816884203D1DFF8A40662
:20A6A000C9F810000AE0D9F81000DFF89C16884203D1DFF89806C9F81000FFE7380003F080
:20A6C000C3FA00203070D9F8040000280CD001A9D9F8080003F080FABDF80400002803D17F
:20A6E000D9F8080003F046FAE4B2032C04D0E4B2052C01D0E4B2062C4046C0B20AE0022051
:20A700003070E4B2032C04D0E4B2052C01D0E4B2062C002005B0BDE8F0832DE9F84F82B024
:20A7200004000D0016005FF00008002E01D1002051E00298C821484383464FF47A70BBFB90
:20A74000F0FB0C980A2805D30C980521B0FBF1F0824601E00220824600208146D14510D298
:20A7600000AA01212000C0B2FFF71DFF0700012001F018FB9DF80000022802D119F1010997
:20A78000ECE79DF80000022801D1002023E0DA4608F8057018F10108B04501D140461AE044
:20A7A00000AA51462000C0B2FFF7FDFE0700012001F0F8FA9DF80000002808D108F80570BF
:20A7C00018F10108B04501D1404604E0E8E7002008F805004046BDE8FE8F2DE9F24F84B0FF
:20A7E000040015001E0000272000C0B2FFF7B2FE8346BBF1000F01D1012086E003F020FAD9
:20A800000700DFF84C050FF2ED314160DFF840050FF2F5318160DFF838050FF20141C160AD
:20A82000DFF82C050FF209410161DFF824050FF215414161DFF818050FF225418161CBF86A
:20A840001C500498CBF82000E4B2012C09D035D3032C17D00FD3052C22D01AD3062C26D039
:20A860002CE0012003F018FB04208046012081460120824624E006208046022081460220EF
:20A8800082461DE00A208046042081460320824616E00C20804605208146042082460FE07E
:20A8A0000E208046062081460520824608E010208046072081460620824601E0012024E00A
:20A8C000DBF81C00401E80B2019003A80090DBF8203000225146C9B24046C0B203F048FEA5
:20A8E0004846C0B203F0E5FA380003F0ADF902AA310089B2DBF8180003F0BBF89DF808006F
:20A900000A2801D1022000E0002005B0BDE8F08F2DE9F04104000D001600B6B2002E01D162
:20A9200000203FE02000C0B200F00FF94FF41673B6B2320029002000C0B2FFF74EFF804624
:20A940002000C0B200F0E6F8E4B2012C14D1012003F0D6FA01280BD00A2300220021002077
:20A9600002F0EDFE7F1CFFB20A2FF0D1002019E0012003F084FA0EE0E4B2022C0BD1322326
:20A9800000220021002002F0DAFE002000F071F9022003F074FAB8F1000F02D1B6B230006A
:20A9A00000E00020BDE8F08138B504002000C0B201F089FA2000C0B2FFF7CCFD0500E4B29E
:20A9C000012C09D032D3032C14D00CD3052C1FD017D3062C23D029E0DFF8480368614FF414
:20A9E0000070E86222E0DFF8440368614FF40070E8621BE0DFF83C0368614FF40060E862F0
:20AA000014E0DFF8380368614FF48060E8620DE0DFF8300368614FF48060E86206E0DFF810
:20AA20002C0368614FF48060E862FFE7002D15D0012002F076FF2860002068606869E860A8
:20AA400068692861002002F06CFFA8600020E86100202862002002F064FFA86131BD2DE982
:20AA6000FC4105000E0017009846089CEDB2072D02DB7FF0010012E000200190E4B2009400
:20AA80004346DBB23A00D2B231002800C0B201F0B9FA002802D05FF0FF3000E00020BDE856
:20AAA000F68130B585B00400E4B2072C02DB7FF0010015E02000C0B2FFF74CFD0500002DF3
:20AAC00002D17FF001000BE000A9286803F084F8BDF80000002802D1286803F04BF800200A
:20AAE00005B030BDF8B5040000252000C0B2FFF731FD0700002F02D17FF0010009E003F0D3
:20AB00009FF8050078680600280003F09DF8B6B23000F2BD10B50400142300220021002059
:20AB200002F00DFEE4B2042C02D1622000F0CFFBE4B2032C02D1D32000F0C9FB0A230022B5
:20AB40000021002002F0FBFD10BD10B50400142300220021002002F0F2FDE4B2042C02D120
:20AB6000622000F0A3FBE4B2032C02D1D32000F09DFB0A2300220021002002F0E0FD10BD86
:20AB80002DE9FF4104000D00160037002000C0B2FFF7E0FC8046B8F1000F02D17FF00100DC
:20ABA00024E0FFB2012F09D01FD3032F08D006D3052F07D005D3062F16D016E015E014E025
:20ABC00013E012E02800C0B203F08DF900A9D8F8180003F001F8BDF80000002803D1D8F87F
:20ABE000180002F0C7FF00E0FFE7002004B0BDE8F081000010B504002200D2B20121012023
:20AC0000FFF7BEFF10BD000010B504002200D2B202210220FFF7B4FF10BD000010B50400C1
:20AC20002200D2B204210320FFF7AAFF10BD000010B504002200D2B205210420FFF7A0FF6C
:20AC400010BD000010B5040042480078401C414908702200D2B206210520FFF791FF10BDB9
:20AC600010B504002200D2B207210620FFF788FF10BD10B4C0B201283CD1374B01241C603E
:20AC8000364B01241C60364B01241C60354B1B7813F00F03334C2370334B00241C80324B7B
:20ACA0001B8853F01003304C23802F4B1B8853F400632D4C23802D4B00241C702C4B0024D6
:20ACC0001C702C4B1B685B0849F27044B3FBF4F35B1E190089B2022391FBF3F31A00264B18
:20ACE0001980264B1A80204B1B8853F003031E4C238006E01C4909884FF6FC7211401A4A08
:20AD0000118010BC704700002C8CFF1F5C8CFF1F8C8CFF1FBC8CFF1FEC8CFF1F1C8DFF1F4A
:20AD20005478FF1F5476FF1F587AFF1F5878FF1F9843FF1F983BFF1F7C55FF1F7C51FF1F9F
:20AD40008059FF1F8055FF1F845DFF1F8459FF1FD88DFF1FC68FFF1F9801664288C66642E2
:20AD60008CC66642015702400C56024011560240105602404804FF1F0056024004560240AC
:20AD800038B504000D00200003F0B4FFEDB2002D0DD1DFF830025FF0FF318160DFF82402DF
:20ADA0000021C170DFF81C02002181711BE0DFF814025FF0FF314161DFF8080200210176B7
:20ADC000DFF800020069002804D4DFF8F801006903F090FFDFF8EC015FF0FF310161DFF8FA
:20ADE000E4010021017331BDDFF8D8018068DFF8D4114969884203DBDFF8C801806802E0D3
:20AE0000DFF8C0014069DFF8BC11096988420FDBDFF8B0018068DFF8AC114969884203DBC9
:20AE2000DFF8A001806806E0DFF89801406902E0DFF8900100697047F0B585B004000D005E
:20AE4000002614F1010F01D1002051E0002D01D100204DE00120039000200490022200219B
:20AE600001A8FFF76CFB0222002102A8FFF767FB082094FBF0F001A9082294FBF2F201ABFB
:20AE8000D25C012314F00707BB401A434254082094FBF0F002A9082294FBF2F202ABD25CA6
:20AEA000012314F00707BB401A434254FFF79CFF03A90091002302AA01A9401C04F09CF942
:20AEC0000600012E11DB082094FBF0F001A9405C14F00701C840C00702D50120287006E023
:20AEE000002006000020287001E002202870300005B0F0BDF8B504000D0016001F003B0019
:20AF000032002900200004F016F8F2BDF8B504000D0016001F003B0032002900200004F068
:20AF20001BF8F2BD2DE9F04782B005000E00170098460A9C5FF0000900208DF800005FF0D6
:20AF4000000A002E01D1002039E0BFB2002F01D1002034E015F1010F01D100202FE000A948
:20AF60002800FFF769FF9DF80000022802D10120824613E09DF8000000280FD04346BFB247
:20AF80003A0031002800FFF7B5FF81461FFA89F9B9F1000F02D101208246FFE75FFA8AFADA
:20AFA000BAF1000F09D02100C9B22800FFF7E8FE0448FF214170002001E0484680B2BDE8DB
:20AFC000F68700004C8DFF1F70B504000D00160032002900200002F017FC200070BD50F89C
:20AFE000041B61B150F8042BD30744BFA9F101039A18002342F8043B091FFAD1EFE7704760
:20B00000BFF34F8FDFF81401006810F4E060DFF810110843DFF804110860BFF34F8FFEE7FC
:20B0200003008B4203D39A4201D3012000E00020704710B403000024002B01D100200CE0EE
:20B04000002004008C4207D2E05CD2B2904201D0002002E0641CF5E7012010BC704730B4DC
:20B06000030000240025002B01D100200DE00D00ADB289B292B25018854204DAADB2E85CDF
:20B0800004196D1CF4E72000C0B230BC704710B401000022002901D1002008E008784B78CD
:20B0A0004FF4807404FB03000200100080B210BC7047F0B503000A2000FB02F60024002582
:20B0C000002B02D0C9B2052902DB5FF0FF3024E000200500EDB2C9B28D421DD26420B6FB39
:20B0E000F0F700FB176004006420B6FBF0F6E4B20A20C9B2EDB24F1BFF18E4B25FF00A0C82
:20B1000094FBFCFC14EB0C1C94FBF0FE00FB1EC007F8010C6D1CDDE70020F0BD0CED00E02C
:20B120000400FA0580B5012080F31388FFF768FF01BDF8B50400002500260027002C30D03E
:20B140001948844207D33B2007003B20060040F2E73005001CE04EF66020B4FBF0F0070087
:20B160004EF66020B4FBF0F100FB11404FF47A71B0FBF1F006004EF66020B4FBF0F100FB20
:20B1800011404FF47A71B0FBF1F201FB120005002B009BB23200D2B23900C9B2002002F09B
:20B1A000CEFAFFF7BFFFF1BD7FEE360070B504000D00160032002900200004F035F92000B9
:20B1C00070BD00000300002013F0030F09D0521E22BF13F8010B11F801CBB0EB0C00F3D08A
:20B1E0007047121F22BF53F8040B51F804CB6045F7D0121D0AD200BA9CFA8CFCB0EB0C001E
:20B2000038BF6FF0000088BF01207047521E22BF13F8010B11F801CBB0EB0C00F6D0521CA1
:20B2200008BF104670470000002204F039B9000010B440B24109DFF8A82B012310F01F0441
:20B24000A34042F8213010BC7047F8B50400E4B220090600012014F00F018840070039004A
:20B260003000C0B204F0BDFA05002800C0B2F2BD2DE9F04104000D001600E4B220090700FF
:20B28000012014F00F0188408046002241463800C0B204F01FF93300DBB22A00D2B2414697
:20B2A0003800C0B204F0B9FABDE8F08170B50400E4B220090500012014F00F018840060037
:20B2C000012231002800C0B200F060FD70BD70B50400E4B220090500012014F00F0188401C
:20B2E0000600002231002800C0B200F04FFD70BD1CB500240622002100A8FFF720F940209D
:20B30000FFF7A3FF002801D1012004004120FFF79CFF002801D154F002044220FFF795FF54
:20B32000002801D154F004044320FFF78EFF002801D154F008044420FFF787FF002801D1BD
:20B3400054F010044520FFF780FF002801D154F02004E4B26420E4B2642194FBF1F201FBB6
:20B3600012410A2294FBF0F300FB13400A2390FBF3F091FBF2F302FB131151EA00108DF891
:20B380000000E4B2642094FBF0F00A21E4B2642294FBF2F20A2392FBF3F290FBF1F301FB60
:20B3A000130050EA02108DF80100062200A9DFF8B40AFFF709FE13BD10B500243C20FFF73A
:20B3C00044FF012801D154F001043B20FFF73DFF012801D154F002043A20FFF736FF012866
:20B3E00001D154F00404DFF8800A047010BD80B500F007FA00F084F900F09BF901BD80B583
:20B40000012201216220FFF733FF6220FFF75FFF01220121D320FFF72BFFD320FFF757FFD0
:20B42000012200214020FFF723FF012200214120FFF71EFF012200214220FFF719FF0122C1
:20B4400000214320FFF714FF012200214420FFF70FFF012200214520FFF70AFF01220021C7
:20B460004620FFF705FF012200214720FFF700FF012200213A20FFF7FBFE012200213B20A0
:20B48000FFF7F6FE012200213C20FFF7F1FE012201214820FFF7ECFE4820FFF707FF012229
:20B4A00001210920FFF7E4FE0920FFF710FF012201212420FFF7DCFE2420FFF7F7FE012290
:20B4C00001212520FFF7D4FE2520FFF7EFFE012201212620FFF7CCFE2620FFF7E7FE012286
:20B4E00001212720FFF7C4FE2720FFF7DFFE012201212820FFF7BCFE2820FFF7D7FE01229E
:20B5000001211920FFF7B4FE1920FFF7CFFE012201211820FFF7ACFE1820FFF7C7FE0122F9
:20B5200001211720FFF7A4FE1720FFF7BFFE012201211C20FFF79CFE1C20FFF7B7FE012215
:20B5400001211B20FFF794FE1B20FFF7AFFE012201211A20FFF78CFE1A20FFF7A7FE012231
:20B5600001211620FFF784FE1620FFF79FFE012201211520FFF77CFE1520FFF797FE012265
:20B5800001211420FFF774FE1420FFF78FFE012201212920FFF76CFE2920FFF787FE012261
:20B5A00001211E20FFF764FE1E20FFF77FFE012201211D20FFF75CFE1D20FFF777FE012285
:20B5C00001211320FFF754FE1320FFF76FFE012201211220FFF74CFE1220FFF767FE0122D1
:20B5E00001211120FFF744FE1120FFF75FFE012201211020FFF73CFE1020FFF757FE0122F9
:20B6000001217A20FFF734FE7A20FFF74FFE01220121A320FFF72CFEA320FFF747FE012220
:20B620000121A420FFF724FEA420FFF73FFE012201210520FFF71CFE0520FFF737FE012228
:20B6400001210620FFF714FE0620FFF72FFE012201210720FFF70CFE0720FFF727FE012280
:20B6600001210820FFF704FE0820FFF71FFE012201215320FFF7FCFD5320FFF717FE012205
